{"abi":[{"type":"constructor","inputs":[{"name":"_usdcToken","type":"address","internalType":"address"},{"name":"_businessRegistry","type":"address","internalType":"address"}],"stateMutability":"nonpayable"},{"type":"function","name":"businessCampaigns","inputs":[{"name":"","type":"address","internalType":"address"},{"name":"","type":"uint256","internalType":"uint256"}],"outputs":[{"name":"","type":"address","internalType":"address"}],"stateMutability":"view"},{"type":"function","name":"businessRegistry","inputs":[],"outputs":[{"name":"","type":"address","internalType":"contract BusinessRegistry"}],"stateMutability":"view"},{"type":"function","name":"campaigns","inputs":[{"name":"","type":"uint256","internalType":"uint256"}],"outputs":[{"name":"","type":"address","internalType":"address"}],"stateMutability":"view"},{"type":"function","name":"createCampaign","inputs":[{"name":"metadataURI","type":"string","internalType":"string"},{"name":"fundingGoal","type":"uint256","internalType":"uint256"},{"name":"fundingPeriodDays","type":"uint256","internalType":"uint256"},{"name":"revenueSharePercent","type":"uint256","internalType":"uint256"},{"name":"repaymentCap","type":"uint256","internalType":"uint256"}],"outputs":[{"name":"","type":"address","internalType":"address"}],"stateMutability":"nonpayable"},{"type":"function","name":"createCampaign","inputs":[{"name":"campaignParams","type":"tuple","internalType":"struct RBFCampaignFactory.CampaignParams","components":[{"name":"metadataURI","type":"string","internalType":"string"},{"name":"fundingGoal","type":"uint256","internalType":"uint256"},{"name":"fundingPeriodDays","type":"uint256","internalType":"uint256"},{"name":"revenueSharePercent","type":"uint256","internalType":"uint256"},{"name":"repaymentCap","type":"uint256","internalType":"uint256"}]},{"name":"businessParams","type":"tuple","internalType":"struct RBFCampaignFactory.BusinessParams","components":[{"name":"name","type":"string","internalType":"string"},{"name":"metadataURI","type":"string","internalType":"string"}]}],"outputs":[{"name":"","type":"address","internalType":"address"}],"stateMutability":"nonpayable"},{"type":"function","name":"getActiveCampaigns","inputs":[],"outputs":[{"name":"","type":"address[]","internalType":"address[]"}],"stateMutability":"view"},{"type":"function","name":"getBusinessCampaigns","inputs":[{"name":"business","type":"address","internalType":"address"}],"outputs":[{"name":"","type":"address[]","internalType":"address[]"}],"stateMutability":"view"},{"type":"function","name":"getCampaignCount","inputs":[],"outputs":[{"name":"","type":"uint256","internalType":"uint256"}],"stateMutability":"view"},{"type":"function","name":"getCampaignDetails","inputs":[{"name":"campaignAddress","type":"address","internalType":"address"}],"outputs":[{"name":"isValid","type":"bool","internalType":"bool"},{"name":"owner","type":"address","internalType":"address"},{"name":"token","type":"address","internalType":"address"},{"name":"metadataURI","type":"string","internalType":"string"},{"name":"fundingGoal","type":"uint256","internalType":"uint256"},{"name":"totalFunded","type":"uint256","internalType":"uint256"},{"name":"fundingActive","type":"bool","internalType":"bool"},{"name":"repaymentActive","type":"bool","internalType":"bool"}],"stateMutability":"view"},{"type":"function","name":"getCampaigns","inputs":[],"outputs":[{"name":"","type":"address[]","internalType":"address[]"}],"stateMutability":"view"},{"type":"function","name":"getLimits","inputs":[],"outputs":[{"name":"_minFundingGoal","type":"uint256","internalType":"uint256"},{"name":"_maxFundingGoal","type":"uint256","internalType":"uint256"},{"name":"_minRevenueShare","type":"uint256","internalType":"uint256"},{"name":"_maxRevenueShare","type":"uint256","internalType":"uint256"},{"name":"_minRepaymentCap","type":"uint256","internalType":"uint256"},{"name":"_maxRepaymentCap","type":"uint256","internalType":"uint256"},{"name":"_minFundingDays","type":"uint256","internalType":"uint256"},{"name":"_maxFundingDays","type":"uint256","internalType":"uint256"}],"stateMutability":"view"},{"type":"function","name":"getRepaymentCampaigns","inputs":[],"outputs":[{"name":"","type":"address[]","internalType":"address[]"}],"stateMutability":"view"},{"type":"function","name":"isValidCampaign","inputs":[{"name":"","type":"address","internalType":"address"}],"outputs":[{"name":"","type":"bool","internalType":"bool"}],"stateMutability":"view"},{"type":"function","name":"maxFundingGoal","inputs":[],"outputs":[{"name":"","type":"uint256","internalType":"uint256"}],"stateMutability":"view"},{"type":"function","name":"maxFundingPeriod","inputs":[],"outputs":[{"name":"","type":"uint256","internalType":"uint256"}],"stateMutability":"view"},{"type":"function","name":"maxRepaymentCap","inputs":[],"outputs":[{"name":"","type":"uint256","internalType":"uint256"}],"stateMutability":"view"},{"type":"function","name":"maxRevenueShare","inputs":[],"outputs":[{"name":"","type":"uint256","internalType":"uint256"}],"stateMutability":"view"},{"type":"function","name":"minFundingGoal","inputs":[],"outputs":[{"name":"","type":"uint256","internalType":"uint256"}],"stateMutability":"view"},{"type":"function","name":"minFundingPeriod","inputs":[],"outputs":[{"name":"","type":"uint256","internalType":"uint256"}],"stateMutability":"view"},{"type":"function","name":"minRepaymentCap","inputs":[],"outputs":[{"name":"","type":"uint256","internalType":"uint256"}],"stateMutability":"view"},{"type":"function","name":"minRevenueShare","inputs":[],"outputs":[{"name":"","type":"uint256","internalType":"uint256"}],"stateMutability":"view"},{"type":"function","name":"owner","inputs":[],"outputs":[{"name":"","type":"address","internalType":"address"}],"stateMutability":"view"},{"type":"function","name":"renounceOwnership","inputs":[],"outputs":[],"stateMutability":"nonpayable"},{"type":"function","name":"setBusinessRegistry","inputs":[{"name":"_businessRegistry","type":"address","internalType":"address"}],"outputs":[],"stateMutability":"nonpayable"},{"type":"function","name":"transferOwnership","inputs":[{"name":"newOwner","type":"address","internalType":"address"}],"outputs":[],"stateMutability":"nonpayable"},{"type":"function","name":"updateFundingLimits","inputs":[{"name":"_min","type":"uint256","internalType":"uint256"},{"name":"_max","type":"uint256","internalType":"uint256"}],"outputs":[],"stateMutability":"nonpayable"},{"type":"function","name":"updateFundingPeriodLimits","inputs":[{"name":"_minDays","type":"uint256","internalType":"uint256"},{"name":"_maxDays","type":"uint256","internalType":"uint256"}],"outputs":[],"stateMutability":"nonpayable"},{"type":"function","name":"updateRepaymentCapLimits","inputs":[{"name":"_min","type":"uint256","internalType":"uint256"},{"name":"_max","type":"uint256","internalType":"uint256"}],"outputs":[],"stateMutability":"nonpayable"},{"type":"function","name":"updateRevenueShareLimits","inputs":[{"name":"_min","type":"uint256","internalType":"uint256"},{"name":"_max","type":"uint256","internalType":"uint256"}],"outputs":[],"stateMutability":"nonpayable"},{"type":"function","name":"usdcToken","inputs":[],"outputs":[{"name":"","type":"address","internalType":"address"}],"stateMutability":"view"},{"type":"event","name":"CampaignCreated","inputs":[{"name":"campaign","type":"address","indexed":true,"internalType":"address"},{"name":"business","type":"address","indexed":true,"internalType":"address"},{"name":"campaignId","type":"uint256","indexed":true,"internalType":"uint256"},{"name":"fundingGoal","type":"uint256","indexed":false,"internalType":"uint256"},{"name":"deadline","type":"uint256","indexed":false,"internalType":"uint256"},{"name":"revenueSharePercent","type":"uint256","indexed":false,"internalType":"uint256"},{"name":"repaymentCap","type":"uint256","indexed":false,"internalType":"uint256"},{"name":"metadataURI","type":"string","indexed":false,"internalType":"string"}],"anonymous":false},{"type":"event","name":"OwnershipTransferred","inputs":[{"name":"previousOwner","type":"address","indexed":true,"internalType":"address"},{"name":"newOwner","type":"address","indexed":true,"internalType":"address"}],"anonymous":false},{"type":"event","name":"ParametersUpdated","inputs":[{"name":"parameterType","type":"string","indexed":false,"internalType":"string"},{"name":"newMin","type":"uint256","indexed":false,"internalType":"uint256"},{"name":"newMax","type":"uint256","indexed":false,"internalType":"uint256"}],"anonymous":false},{"type":"error","name":"BusinessNotRegistered","inputs":[]},{"type":"error","name":"BusinessNotVerified","inputs":[]},{"type":"error","name":"EmptyMetadataURI","inputs":[]},{"type":"error","name":"InvalidDeadline","inputs":[]},{"type":"error","name":"InvalidFundingGoal","inputs":[]},{"type":"error","name":"InvalidParameterUpdate","inputs":[]},{"type":"error","name":"InvalidRepaymentCap","inputs":[]},{"type":"error","name":"InvalidRevenueShare","inputs":[]},{"type":"error","name":"OwnableInvalidOwner","inputs":[{"name":"owner","type":"address","internalType":"address"}]},{"type":"error","name":"OwnableUnauthorizedAccount","inputs":[{"name":"account","type":"address","internalType":"address"}]}],"bytecode":{"object":"0x60a0346200012757601f6200395838819003918201601f19168301916001600160401b038311848410176200012b57808492604094855283398101031262000127576200005a602062000052836200013f565b92016200013f565b33156200010f575f80546001600160a01b03198082163390811784556040519591946001600160a01b039490938516907f8be0079c531659141344cd1fd0a4f28419497f9722a3daafe3b4186f6b6457e09080a3633b9aca006005556509184e72a00060065562093a806007556276a70060085560646009556107d0600a55612af8600b55617530600c55608052169060015416176001556138039081620001558239608051818181610ffd015261146b0152f35b604051631e4fbdf760e01b81525f6004820152602490fd5b5f80fd5b634e487b7160e01b5f52604160045260245ffd5b51906001600160a01b0382168203620001275756fe6040608081526004908136101562000015575f80fd5b5f91823560e01c80630493ac6e146200111657806304db25e914620010775780630b9a021b146200102c57806311eac8551462000fe6578063141961bc1462000fa157806325a6e3871462000f4157806325d0b4ef1462000f2057806328acdf1e1462000e495780632edc3e421462000e285780633dfc32f61462000dfd57806341e0fb9f1462000c675780635001780b1462000c465780636caa92181462000c255780636f89e4091462000bbf578063715018a61462000b615780638b855f1e1462000b405780638da5cb5b1462000b165780639747e8d71462000af55780639ca65ab81462000a71578063a2ba362e14620009ef578063a3808d9314620009af578063a6b03633146200091a578063ad4e35e614620008f9578063b5639eed14620008d8578063c362b15614620005ff578063c79de09b1462000597578063ca97694b1462000576578063cb9ec4fb14620004d7578063cde4769414620002175763f2fde38b1462000187575f80fd5b34620002135760203660031901126200021357620001a4620011b7565b90620001af62001372565b6001600160a01b03918216928315620001fd57505082546001600160a01b0319811683178455167f8be0079c531659141344cd1fd0a4f28419497f9722a3daafe3b4186f6b6457e08380a380f35b51631e4fbdf760e01b8152908101849052602490fd5b8280fd5b5090346200021357600319918183360112620004d35767ffffffffffffffff908035828111620004cf5760a0858236030112620004cf5783519160a0830183811085821117620004bc57855281810135848111620004b857620002809082369185010162001326565b835260209586840193602484013585528681019160448501358352606082019360648601358552608460808401960135865260243597808911620004b45789838a36030112620004b4578951988a8a018a811083821117620004a1578b52808301358281116200049d57620002fb9084369184010162001326565b8a5260248101359182116200049957826200031a923692010162001326565b8a89019081526001546001600160a01b0399908a169190826200035e575b505050505062000356959697985051935190519151925193620013ac565b915191168152f35b8b5163c3c5a54760e01b815233858201528e908e81602481885afa9182156200048e57916200044d575b506200033857805151156200043d57815151156200043d57908d93929151905194823b156200043957620003e693620003f686928f519889978896879563b302a79d60e01b8752339087015260606024870152606486019062001296565b9184830301604485015262001296565b03925af180156200042f57620003569798999a506200041d575b8998979681808062000338565b6200042890620012bd565b5f62000410565b88513d8c823e3d90fd5b8480fd5b8b5163128e0ec160e11b81528490fd5b90508d81813d831162000486575b620004678183620012e6565b8101031262000482576200047b906200139e565b5f62000388565b8e80fd5b503d6200045b565b8e51903d90823e3d90fd5b8c80fd5b8d80fd5b634e487b7160e01b8e526041845260248efd5b8b80fd5b8780fd5b634e487b7160e01b885260418252602488fd5b8580fd5b8380fd5b505034620005725760a05f80516020620037ae83398151915291620004fc366200119c565b90916200050862001372565b8215158062000565575b806200055b575b62000524906200183a565b8260095581600a5580519260608452600c60608501526b526576656e7565536861726560a01b60808501526020840152820152a180f35b5082821162000519565b5061271082111562000512565b5080fd5b50503462000572578160031936011262000572576020906009549051908152f35b509134620005fc5760a0366003190112620005fc5782359067ffffffffffffffff8211620005fc5750620005d5602093620005eb9236910162001326565b60843590606435906044359060243590620013ac565b90516001600160a01b039091168152f35b80fd5b509034620002135782600319360112620002135760025483805b828110620007ad57506200062d9062001b81565b9284855b8381106200064c578451806200064888826200122e565b0390f35b6200065781620011ce565b9054865163031847c960e21b81526001600160a01b03926003926101009291841b1c84169082818981855afa928315620007a3578c9362000765575b505081620006ef575b50620006b6575b5050620006b09062001b45565b62000631565b92620006e6918394620006cd620006b095620011ce565b9054911b1c16620006df828a62001bb9565b5262001b45565b91905f620006a3565b90508751809163796b23bb60e01b8252818860209485935afa9182156200075b578b9262000723575b505042105f6200069c565b90809250813d831162000753575b6200073d8183620012e6565b810103126200074f57515f8062000718565b8980fd5b503d62000731565b89513d8d823e3d90fd5b6200078a929350803d106200079b575b620007818183620012e6565b81019062001878565b5050945050505050905f8062000693565b503d62000775565b8a513d8e823e3d90fd5b620007b881620011ce565b9054855163031847c960e21b81526101009260031b9190911c6001600160a01b03169082818981855afa928315620008ce578993620008a2575b5050816200082c575b5062000813575b6200080d9062001b45565b62000619565b90620008236200080d9162001b45565b91905062000802565b90508451809163796b23bb60e01b8252818860209485935afa9182156200089857889262000860575b505042105f620007fb565b90809250813d831162000890575b6200087a8183620012e6565b810103126200088c57515f8062000855565b8680fd5b503d6200086e565b86513d8a823e3d90fd5b620008bd929350803d106200079b57620007818183620012e6565b5050945050505050905f80620007f2565b87513d8b823e3d90fd5b5050346200057257816003193601126200057257602090600a549051908152f35b50503462000572578160031936011262000572576020906007549051908152f35b828434620005fc5780600319360112620005fc578151918291600254808552602080950194600283527f405787fa12a823e0f2b7631cc41b3ba8828b3321ca811111fa75cd3aa3bb5ace92905b8282106200098e5762000648868662000983828b0383620012e6565b51918291826200122e565b83546001600160a01b03168752958601956001938401939091019062000967565b503462000213576020366003190112620002135760209260ff918391906001600160a01b03620009de620011b7565b168252855220541690519015158152f35b50503462000572576020908160031936011262000213576001600160a01b03928362000a1a620011b7565b16815260038352818120938251908194808754938481520196845280842093915b83831062000a575762000648878762000983828c0383620012e6565b845481168852968101966001948501949092019162000a3b565b50503462000572576020366003190112620005725762000ad89062000a9f62000a99620011b7565b620018c6565b958891959993979894929451998a9915158a5260018060a01b0380921660208b0152169088015261010080606089015287019062001296565b93608086015260a0850152151560c0840152151560e08301520390f35b50503462000572578160031936011262000572576020906008549051908152f35b5050346200057257816003193601126200057257905490516001600160a01b039091168152602090f35b5050346200057257816003193601126200057257602090600c549051908152f35b8334620005fc5780600319360112620005fc5762000b7e62001372565b80546001600160a01b03198116825581906001600160a01b03167f8be0079c531659141344cd1fd0a4f28419497f9722a3daafe3b4186f6b6457e08280a380f35b5050346200057257816003193601126200057257610100906005549060065490600954600a54600b5490600c549262015180948560075404956008540496815198895260208901528701526060860152608085015260a084015260c083015260e0820152f35b50503462000572578160031936011262000572576020906002549051908152f35b50503462000572578160031936011262000572576020906006549051908152f35b509034620002135782600319360112620002135760025483805b82811062000d5f575062000c959062001b81565b928490855b83811062000cb1578451806200064888826200122e565b62000cbc81620011ce565b9054865163031847c960e21b81526001600160a01b039260039261010092918391839189918391881b1c88165afa9182156200075b578b9262000d35575b505062000d15575b505062000d0f9062001b45565b62000c9a565b9362000d2c918395620006cd62000d0f95620011ce565b92905f62000d02565b62000d4f9250803d106200079b57620007818183620012e6565b50955050505050505f8062000cfa565b62000d6a81620011ce565b905485519063031847c960e21b825281888161010095869460018060a01b039160031b1c165afa9182156200089857889262000dd3575b505062000dba575b62000db49062001b45565b62000c81565b9062000dca62000db49162001b45565b91905062000da9565b62000ded9250803d106200079b57620007818183620012e6565b50955050505050505f8062000da1565b505034620005725781600319360112620005725760015490516001600160a01b039091168152602090f35b5050346200057257816003193601126200057257602090600b549051908152f35b50919034620005725762000e5d366200119c565b909162000e6962001372565b821580158062000f16575b62000e7f906200183a565b6201518090818502908582048314171562000f035760075580830290838204148315171562000ef057915f80516020620037ae833981519152939160a09360085580519260608452600d60608501526c119d5b991a5b99d4195c9a5bd9609a1b60808501526020840152820152a180f35b634e487b7160e01b855260118652602485fd5b634e487b7160e01b865260118752602486fd5b5083831162000e74565b50503462000572578160031936011262000572576020906005549051908152f35b505034620005725780600319360112620005725762000f5f620011b7565b6001600160a01b039081168352600360205281832080546024359490851015620005fc575060209362000f929162001218565b90549060031b1c169051908152f35b50346200021357602036600319011262000213573591600254831015620005fc575062000fd0602092620011ce565b905491519160018060a01b039160031b1c168152f35b5050346200057257816003193601126200057257517f00000000000000000000000000000000000000000000000000000000000000006001600160a01b03168152602090f35b8334620005fc576020366003190112620005fc576200104a620011b7565b6200105462001372565b60018060a01b03166bffffffffffffffffffffffff60a01b600154161760015580f35b505034620005725760a05f80516020620037ae833981519152916200109c366200119c565b9091620010a862001372565b6127108310158062001108575b80620010fe575b620010c7906200183a565b82600b5581600c5580519260608452600c60608501526b052657061796d656e744361760a41b60808501526020840152820152a180f35b50828211620010bc565b50620186a0821115620010b5565b505034620005725760a05f80516020620037ae833981519152916200113b366200119c565b90916200114762001372565b8215158062001192575b6200115c906200183a565b826005558160065580519260608452600b60608501526a119d5b991a5b99d1dbd85b60aa1b60808501526020840152820152a180f35b5082821162001151565b6040906003190112620011b3576004359060243590565b5f80fd5b600435906001600160a01b0382168203620011b357565b600254811015620012045760025f527f405787fa12a823e0f2b7631cc41b3ba8828b3321ca811111fa75cd3aa3bb5ace01905f90565b634e487b7160e01b5f52603260045260245ffd5b805482101562001204575f5260205f2001905f90565b602090816040818301928281528551809452019301915f5b82811062001255575050505090565b83516001600160a01b03168552938101939281019260010162001246565b5f5b838110620012855750505f910152565b818101518382015260200162001275565b90602091620012b18151809281855285808601910162001273565b601f01601f1916010190565b67ffffffffffffffff8111620012d257604052565b634e487b7160e01b5f52604160045260245ffd5b90601f8019910116810190811067ffffffffffffffff821117620012d257604052565b67ffffffffffffffff8111620012d257601f01601f191660200190565b81601f82011215620011b357803590620013408262001309565b92620013506040519485620012e6565b82845260208383010111620011b357815f926020809301838601378301015290565b5f546001600160a01b031633036200138657565b60405163118cdaa760e01b8152336004820152602490fd5b51908115158203620011b357565b6001546001600160a01b03955f9592949092918716908162001706575b855115620016f45760055485108015620016e8575b620016d6576201518090818102918183041490151715620016685760075481108015620016ca575b620016b85760095483108015620016ac575b6200169a57600b54841080156200168e575b6200167c5742018042116200166857604091825190611bdf908183019183831067ffffffffffffffff84111762001654579083929162001bcf84393382528b7f0000000000000000000000000000000000000000000000000000000000000000166020830152858201528660e0620014ad61010080606086015284018c62001296565b928a60808201528660a08201528860c08201520152039088f080156200164a578816976002546801000000000000000090818110156200163657806001620014f99201600255620011ce565b81549060031b90848d831b921b19161790553389526003602052838920805491821015620016365790620015339160018201815562001218565b81549060031b90838c831b921b19161790558888526004602052828820600160ff198254161790556001541680620015e4575b506002545f19810197908811620015d0575091818895937f4a44e6926779f02b676b7f319db7e5c9fe2d27d04e03bf237f555fc8374a5b2a9593519485526020850152830152606082015260a0608082015280620015ca339560a083019062001296565b0390a490565b634e487b7160e01b81526011600452602490fd5b803b15620004b857878091602485518094819363a270db8f60e01b83523360048401525af180156200162c571562001566576200162490979197620012bd565b955f62001566565b83513d8a823e3d90fd5b634e487b7160e01b8a52604160045260248afd5b82513d89823e3d90fd5b634e487b7160e01b8b52604160045260248bfd5b634e487b7160e01b87526011600452602487fd5b6040516388847c9760e01b8152600490fd5b50600c5484116200142a565b604051630c1405c960e31b8152600490fd5b50600a54831162001418565b604051631da7447960e21b8152600490fd5b50600854811162001406565b604051632a98a85960e21b8152600490fd5b506006548511620013de565b60405163128e0ec160e11b8152600490fd5b6040805163c3c5a54760e01b81523360048201526020908181602481885afa908115620017e2578a91620017fd575b5015620017ec5764174876e8008711908162001769575b50620017595750620013c9565b51634eddfb7960e01b8152600490fd5b825163b9209e3360e01b81523360048201529091508181602481885afa918215620017e2578a92620017a0575b5050155f6200174c565b90809250813d8311620017da575b620017ba8183620012e6565b81010312620017d657620017ce906200139e565b5f8062001796565b8880fd5b503d620017ae565b83513d8c823e3d90fd5b81516374336c5960e11b8152600490fd5b90508181813d831162001832575b620018178183620012e6565b810103126200074f576200182b906200139e565b5f62001735565b503d6200180b565b156200184257565b60405162461bcd60e51b815260206004820152600e60248201526d496e76616c6964206c696d69747360901b6044820152606490fd5b919082610100910312620011b357815191602081015191604082015191606081015191608082015191620018af60a082016200139e565b9160e0620018c060c084016200139e565b92015190565b60018060a01b03809116905f828152600493602092858452604060ff81852054161562001aff57805163031847c960e21b8152926101009283858a818b5afa92831562001af657898780978197829762001abc575b50508251638da5cb5b60e01b81529b8a908d90818e5afa9b8c1562001a2857819c62001a7d575b508251637e062a3560e11b81529a8a8c8481845afa9b8c1562001a7357829c62001a34575b50819084519384809262fb90e360e21b82525afa998a1562001a2857819a6200199c575b505050506001989716959493929190565b9091929399503d8083853e620019b38185620012e6565b8301928181850312620002135780519067ffffffffffffffff8211620004d357019183601f84011215620005fc57825193620019fd620019f38662001309565b96519687620012e6565b848652828585010111620005fc575062001a1d9291848201910162001273565b955f8080806200198b565b508251903d90823e3d90fd5b909b508a81813d831162001a6b575b62001a4f8183620012e6565b81010312620005725751848116810362000572579a8162001967565b503d62001a43565b84513d84823e3d90fd5b909b508981813d831162001ab4575b62001a988183620012e6565b81010312620004b457518381168103620004b4579a5f62001942565b503d62001a8c565b929950929750945062001adf929550803d106200079b57620007818183620012e6565b5098959250989399925050979695945f806200191b565b513d87823e3d90fd5b93959450509080948194829480519283019183831067ffffffffffffffff84111762001b32575052818152918180918190565b634e487b7160e01b855260419052602484fd5b5f19811462001b545760010190565b634e487b7160e01b5f52601160045260245ffd5b67ffffffffffffffff8111620012d25760051b60200190565b9062001b8d8262001b68565b62001b9c6040519182620012e6565b828152809262001baf601f199162001b68565b0190602036910137565b8051821015620012045760209160051b01019056fe61016060405234620003895762001bdf803803806200001e816200038d565b92833981019061010091828282031262000389576200003d82620003b3565b60206200004c818501620003b3565b916200005b60408601620003b3565b606086015190946001600160401b03918281116200038957870190601f90808284011215620003895782518481116200036057601f1993620000a3828501861689016200038d565b92828452888383010111620003895787905f5b838110620003745750505f918301015260808901519560a08a01519760e060c08c01519b015199600197885f558860ff19600454161760045560805260018060a01b0380921660a0521660c052815194851162000360578554938685811c9516801562000355575b8286101462000341578484879611620002e8575b5081938511600114620002845750505f9262000278575b50505f19600383901b1c191690821b1790555b60e052835261012091825261014090815242600655604051916118169384620003c98539608051848181610454015281816108b3015281816109c701528181610c86015261156a015260a0518481816101900152818161028c015281816105250152818161080401528181610df201528181610edb0152611592015260c0518481816105e001528181610f8d01526115c0015260e05184818161025d015281816107d5015281816108e601528181610a1101528181610cec01528181610d9601526111730152518381816102220152818161079a01528181610d270152610e720152518281816104aa01528181611035015261119e0152518181816104db015281816110c3015281816111c401528181611723015261178f0152f35b015190505f8062000149565b86959392919316855f52835f20935f905b828210620002ce5750508411620002b5575b505050811b0190556200015c565b01515f1960f88460031b161c191690555f8080620002a7565b848401518655889790950194938401939081019062000295565b909192939450865f52825f208580880160051c82019285891062000337575b9188978a9297969594930160051c01915b8281106200032857505062000132565b5f815588975089910162000318565b9250819262000307565b634e487b7160e01b5f52602260045260245ffd5b94607f16946200011e565b634e487b7160e01b5f52604160045260245ffd5b818101830151858201840152899201620000b6565b5f80fd5b6040519190601f01601f191682016001600160401b038111838210176200036057604052565b51906001600160a01b0382168203620003895756fe608060408181526004918236101561002a575b50361561001d575f80fd5b516312171d8360e31b8152fd5b5f90813560e01c90816301d6f705146112dc5750806303ee438c146111fd5780630c611f241461113f578063253da8bd1461112057806326b387bb146110e65780632c52af3d146110ab5780633152dd00146110895780633820d13714611058578063385086ce1461101d5780633c233a7d146110005780633cb5d10014610fbc5780633dfc32f614610f7857806342e94c9014610f3e5780634c7ce18a14610e98578063590e1ae314610d675780636d13365f14610d4a578063796b23bb14610d0f5780637a3a0e8414610cd45780637d1e5bd414610cb55780638da5cb5b14610c71578063918b5be11461094f57806391cb7131146109305780639c06c6b31461089e578063a72dad051461087f578063ad044f4914610860578063c1cbbca714610770578063c829799b1461042a578063ce40a308146101e7578063d168cd4d146101c35763fc0c546a036100125790346101bf57816003193601126101bf57517f00000000000000000000000000000000000000000000000000000000000000006001600160a01b03168152602090f35b5080fd5b5090346101bf57816003193601126101bf576020906101e06117c2565b9051908152f35b509190346104265760a036600319011261042657813560243560443560ff811680910361042257610216611532565b60ff85541615610412577f00000000000000000000000000000000000000000000000000000000000000004210156104025782156103f25761025a8360035461140f565b947f00000000000000000000000000000000000000000000000000000000000000008096116103e4578242116103d6577f000000000000000000000000000000000000000000000000000000000000000092879291906001600160a01b038516803b156103c85784928360e4928a51968795869463d505accf60e01b865233908601523060248601528b60448601526064850152608484015260643560a484015260843560c48401525af180156103cc57908492916103b1575b50506103239130903390611472565b338452600860205281842054156103a3575b338452600860205281842061034b82825461140f565b90556103598160035461140f565b9182600355519081527f62722348256371b5147820d6cad90c40fd2da1ccee18c3ed52c0bca5a61dbbab60203392a21015610396575b6001815580f35b61039e611553565b61038f565b6103ac33611430565b610335565b6103bc919250611335565b6103c85781855f610314565b8480fd5b85513d84823e3d90fd5b84516305787bdf60e01b8152fd5b84516355c5c72d60e11b8152fd5b5050505163162908e360e11b8152fd5b505050516310b63aa560e31b8152fd5b5050505163219a945b60e11b8152fd5b8580fd5b8280fd5b5082346101bf57602092836003193601126104265781359061044a611532565b6001600160a01b037f000000000000000000000000000000000000000000000000000000000000000081169590338790036107605760ff60075416156107505760065462278d00810180911161073d57421061072d5761271090816104cf7f0000000000000000000000000000000000000000000000000000000000000000876116cd565b049460039261050084547f0000000000000000000000000000000000000000000000000000000000000000906116cd565b049061050e600554836116fe565b808811610725575b508615610715576105498730337f0000000000000000000000000000000000000000000000000000000000000000611472565b885b600a548110156105bf578361055f826113c6565b905490871b1c16808b526008875261058561057d898d20548b6116cd565b8754906116e0565b908b526009875261059a888c2091825461140f565b90555f1981146105ac5760010161054b565b634e487b7160e01b8a526011895260248afd5b5092509293948796878a88946105d78560055461140f565b600555426006557f0000000000000000000000000000000000000000000000000000000000000000169283610684575b505083519485525050848301527f02b9811aafc036fe6fdec698a06d1f86d96b2ca4fd7eac2f1c2a58489371a63691a16005549081101561064b575b836001815580f35b7fd8baf0ef12dc225fffac8e7436f8b75f20c35d9752ffcf28a2df548c146ba33f9260ff196007541660075551908152a1818080610643565b909192809495503b1561042657608490838a5195869485936302d1079360e31b8552840152816024840152876044840152600160648401525af1801561070b576106d4575b908187818894610607565b918591966107027f02b9811aafc036fe6fdec698a06d1f86d96b2ca4fd7eac2f1c2a58489371a63694611335565b969150916106c9565b86513d89823e3d90fd5b855163162908e360e11b81528890fd5b96508a610516565b82516335d85b1960e21b81528590fd5b634e487b7160e01b875260118652602487fd5b825163219a945b60e11b81528590fd5b82516330cd747160e01b81528590fd5b5091903461042657602036600319011261042657813561078e611532565b60ff83541615610852577f0000000000000000000000000000000000000000000000000000000000000000421015610844578015610836576107d28160035461140f565b927f000000000000000000000000000000000000000000000000000000000000000080941161082857506103238130337f0000000000000000000000000000000000000000000000000000000000000000611472565b82516355c5c72d60e11b8152fd5b505163162908e360e11b8152fd5b50516310b63aa560e31b8152fd5b505163219a945b60e11b8152fd5b5090346101bf57816003193601126101bf576020906003549051908152f35b5090346101bf57816003193601126101bf576020906005549051908152f35b509190346104265782600319360112610426577f00000000000000000000000000000000000000000000000000000000000000006001600160a01b03163303610923576003547f0000000000000000000000000000000000000000000000000000000000000000116109165782610913611553565b80f35b516357e000b160e01b8152fd5b516330cd747160e01b8152fd5b5090346101bf57816003193601126101bf576020906002549051908152f35b5082346101bf57602092836003193601126104265767ffffffffffffffff9382358581116103c857366023820112156103c8578084013593868511610beb57835194601f19926109a6601f8301851686018861135d565b8187523660248383010111610c6d578188926024879301838a0137870101527f00000000000000000000000000000000000000000000000000000000000000006001600160a01b03163303610c5f57845115610c515760ff81541680610c46575b15610c2d576003547f000000000000000000000000000000000000000000000000000000000000000060011c1115610c1f575b600254610e108101809111610c0c574210610bfe578451968711610beb5750600191610a6683546112fd565b601f8111610b87575b508091601f8811600114610ae257505090858596610ad19594937f1c306e70c05992619e2128ad1ef88df75f36c9476282e59f51401b2abaa42e4e9791610ad7575b505f19600383901b1c191690821b1790555b42600255519182918261137f565b0390a180f35b905084015188610ab1565b87929192168387527fb10e2d527612073b26eecdfd717e6a320cf44b4afac2b0732d9fcbe2b7fa0cf69287905b828210610b70575050968392610ad196959492827f1c306e70c05992619e2128ad1ef88df75f36c9476282e59f51401b2abaa42e4e999a10610b58575b5050811b019055610ac3565b8601515f1960f88460031b161c191690558880610b4c565b808685968294968b01518155019501930190610b0f565b8387527fb10e2d527612073b26eecdfd717e6a320cf44b4afac2b0732d9fcbe2b7fa0cf6601f890160051c810191838a10610be1575b601f0160051c019084905b828110610bd6575050610a6f565b888155018490610bc8565b9091508190610bbd565b634e487b7160e01b865260419052602485fd5b83516305d7503b60e01b8152fd5b634e487b7160e01b875260118252602487fd5b835163032b3b6760e11b8152fd5b60ff6007541615610a3a57835163032b3b6760e11b8152fd5b506003541515610a07565b835163128e0ec160e11b8152fd5b83516330cd747160e01b8152fd5b8780fd5b5090346101bf57816003193601126101bf57517f00000000000000000000000000000000000000000000000000000000000000006001600160a01b03168152602090f35b5090346101bf57816003193601126101bf576020906006549051908152f35b5090346101bf57816003193601126101bf57602090517f00000000000000000000000000000000000000000000000000000000000000008152f35b5090346101bf57816003193601126101bf57602090517f00000000000000000000000000000000000000000000000000000000000000008152f35b5090346101bf57816003193601126101bf576020906101e0611776565b50919034610426578260031936011261042657610d82611532565b60ff82541680610e6f575b610e62576003547f00000000000000000000000000000000000000000000000000000000000000001115610e5557338352600860205280832054918215610e47575033835260086020528281812055610de8826003546116fe565b600355610e1682337f000000000000000000000000000000000000000000000000000000000000000061167d565b519081527f813795cf86527498dec1940f7ebd6f9f5374c15bf1c5931d05b389afdb149d1260203392a26001815580f35b905163162908e360e11b8152fd5b516355c5c72d60e11b8152fd5b516310b63aa560e31b8152fd5b507f00000000000000000000000000000000000000000000000000000000000000004210610d8d565b50919034610426578260031936011261042657610eb3611532565b338352600960205280832054918215610f30575033835260096020528281812055610eff82337f000000000000000000000000000000000000000000000000000000000000000061167d565b519081527f0f9fa24c1d9febdaf99508f4923a7b5add9bd70eab45c8fc614509df7989493860203392a26001815580f35b9051632400d77160e01b8152fd5b50913461042657602036600319011261042657356001600160a01b0381169081900361042657828291602094526008845220549051908152f35b5090346101bf57816003193601126101bf57517f00000000000000000000000000000000000000000000000000000000000000006001600160a01b03168152602090f35b509134610426576020366003190112610426573591600a54831015610ffd5750610fe76020926113c6565b905491519160018060a01b039160031b1c168152f35b80fd5b5090346101bf57816003193601126101bf5760209051610e108152f35b5090346101bf57816003193601126101bf57602090517f00000000000000000000000000000000000000000000000000000000000000008152f35b5091346104265760203660031901126104265735916001600160a01b0383168303610ffd57506101e060209261170b565b5034610ffd5780600319360112610ffd575060ff602092541690519015158152f35b5090346101bf57816003193601126101bf57602090517f00000000000000000000000000000000000000000000000000000000000000008152f35b50913461042657602036600319011261042657356001600160a01b0381169081900361042657828291602094526009845220549051908152f35b5090346101bf57816003193601126101bf57602090600a549051908152f35b5091903461042657826003193601126104265761010092506003549160ff60055491541660ff6007541691600a54938051957f0000000000000000000000000000000000000000000000000000000000000000875260208701528501527f000000000000000000000000000000000000000000000000000000000000000060608501527f00000000000000000000000000000000000000000000000000000000000000006080850152151560a0840152151560c083015260e0820152f35b5090346101bf57816003193601126101bf57805190826001805491611221836112fd565b808652928281169081156112b45750600114611258575b50505061124a8261125494038361135d565b519182918261137f565b0390f35b94508085527fb10e2d527612073b26eecdfd717e6a320cf44b4afac2b0732d9fcbe2b7fa0cf65b82861061129c5750505061124a8260206112549582010194611238565b8054602087870181019190915290950194810161127f565b61125497508693506020925061124a94915060ff191682840152151560051b82010194611238565b9050346101bf57816003193601126101bf5760209060ff6007541615158152f35b90600182811c9216801561132b575b602083101461131757565b634e487b7160e01b5f52602260045260245ffd5b91607f169161130c565b67ffffffffffffffff811161134957604052565b634e487b7160e01b5f52604160045260245ffd5b90601f8019910116810190811067ffffffffffffffff82111761134957604052565b602080825282518183018190529093925f5b8281106113b257505060409293505f838284010152601f8019910116010190565b818101860151848201604001528501611391565b600a548110156113fb57600a5f527fc65a7bb8d6351c1cf70c95a316cc6a92839c986682d98bc35f958f4883f9d2a801905f90565b634e487b7160e01b5f52603260045260245ffd5b9190820180921161141c57565b634e487b7160e01b5f52601160045260245ffd5b600a5468010000000000000000811015611349578060016114549201600a556113c6565b819291549060031b9160018060a01b03809116831b921b1916179055565b6040516323b872dd60e01b60208201526001600160a01b03928316602482015292909116604483015260648083019390935291815260a081019181831067ffffffffffffffff841117611349576114cb926040526114cd565b565b905f602091828151910182855af115611527575f513d61151e57506001600160a01b0381163b155b6114fc5750565b604051635274afe760e01b81526001600160a01b039091166004820152602490fd5b600114156114f5565b6040513d5f823e3d90fd5b60025f54146115415760025f55565b604051633ee5aeb560e01b8152600490fd5b600160ff19806004541660045560075416176007557f00000000000000000000000000000000000000000000000000000000000000006115b6600354827f000000000000000000000000000000000000000000000000000000000000000061167d565b6001600160a01b037f0000000000000000000000000000000000000000000000000000000000000000811691908261161b575b5050507fbdf8e8154212732e32053db049accdd4ff27639d7028ecf127e2353161b994bf6020600354604051908152a1565b60035492803b15611679575f928360849260405196879586946302d1079360e31b86521660048501526024840152816044840152600160648401525af180156115275761166a575b80806115e9565b61167390611335565b5f611663565b5f80fd5b60405163a9059cbb60e01b60208201526001600160a01b039092166024830152604480830193909352918152608081019167ffffffffffffffff831182841017611349576114cb926040526114cd565b8181029291811591840414171561141c57565b81156116ea570490565b634e487b7160e01b5f52601260045260245ffd5b9190820391821161141c57565b60035480156117705761176861176d926127106117487f0000000000000000000000000000000000000000000000000000000000000000856116cd565b6001600160a01b039092165f9081526008602052604090205491046116cd565b6116e0565b90565b50505f90565b60ff60075416156117be5761176d6127106117b46003547f0000000000000000000000000000000000000000000000000000000000000000906116cd565b04600554906116fe565b5f90565b60ff60075416156117be5760065462278d00810180911161141c579056fea2646970667358221220fbaeb65679053d4310270e4ec0435c32c4c43847bb9a527cccbe6dc1cbd9534764736f6c634300081400334cf452eb0a967c3e91bdb701b2c668b1122e847f9285161b9c59055727d8d4a6a2646970667358221220fd8213bfe841c498f35e8a784234e0e848607ef62a9ff2ae734c641bd4851a5164736f6c63430008140033","linkReferences":{}},"methodIdentifiers":{"businessCampaigns(address,uint256)":"25a6e387","businessRegistry()":"3dfc32f6","campaigns(uint256)":"141961bc","createCampaign((string,uint256,uint256,uint256,uint256),(string,string))":"cde47694","createCampaign(string,uint256,uint256,uint256,uint256)":"c79de09b","getActiveCampaigns()":"c362b156","getBusinessCampaigns(address)":"a2ba362e","getCampaignCount()":"6caa9218","getCampaignDetails(address)":"9ca65ab8","getCampaigns()":"a6b03633","getLimits()":"6f89e409","getRepaymentCampaigns()":"41e0fb9f","isValidCampaign(address)":"a3808d93","maxFundingGoal()":"5001780b","maxFundingPeriod()":"9747e8d7","maxRepaymentCap()":"8b855f1e","maxRevenueShare()":"b5639eed","minFundingGoal()":"25d0b4ef","minFundingPeriod()":"ad4e35e6","minRepaymentCap()":"2edc3e42","minRevenueShare()":"ca97694b","owner()":"8da5cb5b","renounceOwnership()":"715018a6","setBusinessRegistry(address)":"0b9a021b","transferOwnership(address)":"f2fde38b","updateFundingLimits(uint256,uint256)":"0493ac6e","updateFundingPeriodLimits(uint256,uint256)":"28acdf1e","updateRepaymentCapLimits(uint256,uint256)":"04db25e9","updateRevenueShareLimits(uint256,uint256)":"cb9ec4fb","usdcToken()":"11eac855"},"id":49}